:100000000C9434000C943E000C943E000C943E0082
:100010000C9496000C943E000C943E000C943E0010
:100020000C943E000C943E000C943E000C943E0058
:100030000C943E000C943E000C943E000C943E0048
:100040000C943E000C943E000C943E000C943E0038
:100050000C943E000C943E000C943E000C943E0028
:100060000C943E000C943E0011241FBECFEFD8E04C
:10007000DEBFCDBF0E94EB000C94B0030C940000D7
:1000800085B98BB18F7D8BB98BB18F7B8BB98BB1E0
:1000900080688BB987EA91E60197F1F700C000000C
:1000A0008BB18F778BB9089588E30E94400089EF68
:1000B00090E00197F1F700C0000081E00E9440004D
:1000C00089EF90E00197F1F700C0000082E00E9404
:1000D000400089EF90E00197F1F700C0000086E052
:1000E0000E94400089EF90E00197F1F700C0000006
:1000F00080E80E94400089EF90E00197F1F700C08E
:100100000000089585B98BB180628BB98BB18F7B6C
:100110008BB98BB180688BB983EF91E00197F1F7D0
:1001200000C000008BB18F778BB908951F920F929A
:100130000FB60F9211242F933F934F935F936F93BA
:100140007F938F939F93AF93BF93EF93FF9321C0C0
:1001500089B1877F89B981E00E94400082E50E94D1
:10016000820085E40E94820083E50E94820085E48B
:100170000E94820084E50E9482002FE986E891E0D7
:10018000215080409040E1F700C0000081E00E94D3
:1001900040003599DDCFFF91EF91BF91AF919F91D5
:1001A0008F917F916F915F914F913F912F910F9020
:1001B0000FBE0F901F901895882321F0813021F0F9
:1001C00080E003C080E801C080EC603108F4860F55
:1001D0000E9440000895CF93DF9300D000D0CDB7A8
:1001E000DEB78FEF84B988EE8AB98BB181608BB9A5
:1001F00087B1806287B988B1806288B9ECE6F0E0A7
:10020000808180628083E8E6F0E080818260808384
:1002100078940E94540083EC99E00197F1F700C0B4
:1002200000008CE00E94400083EC99E00197F1F718
:1002300000C0000081E00E94400019821A821B82E7
:100240001C8280E2898381E00E94400083E68093E3
:100250007C0083E880937A0080E090E009C0E1E0D0
:10026000F0E0EC0FFD1FE80FF91F20E2208301965C
:1002700084309105A4F367E080E00E94DC00EAE7A7
:10028000F0E080818064808380917A0086FDFCCFDD
:100290006091790070E080E090E00E94750220E0BB
:1002A00030E04FE753E40E94CD0120E030E04AEF18
:1002B00053E40E9403030E943F02DC01CB017C0156
:1002C0004AE050E0BE016F5F7F4F0E94700300E084
:1002D00010E013C0E1E0F0E0EC0FFD1FE00FF11FB4
:1002E000808190ED980F9A3020F080E20E94820089
:1002F00002C00E9482000F5F1F4F0430110554F3AB
:100300009FE926E881E0915020408040E1F700C05D
:10031000000093E3E916F104DCF088E40E94820017
:1003200085E40E94820081E40E94820084E50E94AC
:10033000820089B1886089B92FE58AEE90E021506A
:1003400080409040E1F700C0000089B1877F89B903
:10035000489B1CC067E081E00E94DC0083E50E94AE
:1003600082008DE40E9482008FE40E9482008BE470
:100370000E94820085E40E9482002FE58AEE90E0D0
:10038000215080409040E1F700C0000089B1877F94
:1003900089B981E00E94400056CF0E94E1010C948F
:1003A000C9020E94C20258F00E94BB0240F029F428
:1003B0005F3F29F00C94B20251110C94FD020C9491
:1003C000B8020E94DA0268F39923B1F3552391F33E
:1003D000951B550BBB27AA2762177307840738F0B4
:1003E0009F5F5F4F220F331F441FAA1FA9F335D011
:1003F0000E2E3AF0E0E832D091505040E695001CC5
:10040000CAF72BD0FE2F29D0660F771F881FBB1F7E
:10041000261737074807AB07B0E809F0BB0B802D5C
:10042000BF01FF2793585F4F3AF09E3F510578F088
:100430000C94B2020C94FD025F3FE4F3983ED4F3B7
:10044000869577956795B795F7959F5FC9F7880F5C
:10045000911D9695879597F90895E1E0660F771FAE
:10046000881FBB1F621773078407BA0720F0621B3F
:10047000730B840BBA0BEE1F88F7E09508950E946A
:1004800046026894B1110C94FD0208950E94E202A4
:1004900088F09F5798F0B92F9927B751B0F0E1F045
:1004A000660F771F881F991F1AF0BA95C9F714C0F5
:1004B000B13091F00E94FC02B1E008950C94FC026E
:1004C000672F782F8827B85F39F0B93FCCF386952E
:1004D00077956795B395D9F73EF49095809570958B
:1004E00061957F4F8F4F9F4F0895E89409C097FB08
:1004F0003EF490958095709561957F4F8F4F9F4FFB
:100500009923A9F0F92F96E9BB279395F69587953E
:1005100077956795B795F111F8CFFAF4BB0F11F401
:1005200060FF1BC06F5F7F4F8F4F9F4F16C08823A8
:1005300011F096E911C0772321F09EE8872F762FDE
:1005400005C0662371F096E8862F70E060E02AF01F
:100550009A95660F771F881FDAF7880F969587950B
:1005600097F9089597F99F6780E870E060E0089533
:100570009FEF80EC089500240A94161617061806BB
:100580000906089500240A94121613061406050697
:100590000895092E0394000C11F4882352F0BB0F28
:1005A00040F4BF2B11F460FF04C06F5F7F4F8F4F8B
:1005B0009F4F089557FD9058440F551F59F05F3FC6
:1005C00071F04795880F97FB991F61F09F3F79F075
:1005D00087950895121613061406551FF2CF4695F7
:1005E000F1DF08C0161617061806991FF1CF869579
:1005F0007105610508940895E894BB27662777275D
:10060000CB0197F908950E9416030C94C9020E9429
:10061000BB0238F00E94C20220F0952311F00C9426
:10062000B2020C94B80211240C94FD020E94DA026A
:1006300070F3959FC1F3950F50E0551F629FF00135
:10064000729FBB27F00DB11D639FAA27F00DB11D4E
:10065000AA1F649F6627B00DA11D661F829F2227D7
:10066000B00DA11D621F739FB00DA11D621F839F5E
:10067000A00D611D221F749F3327A00D611D231F34
:10068000849F600D211D822F762F6A2F11249F5782
:1006900050409AF0F1F088234AF0EE0FFF1FBB1F85
:1006A000661F771F881F91505040A9F79E3F510544
:1006B00080F00C94B2020C94FD025F3FE4F3983E8C
:1006C000D4F3869577956795B795F795E7959F5FEE
:1006D000C1F7FE2B880F911D9695879597F9089580
:1006E0004532510520F4423010F00C947B03FB019D
:1006F0001082CB010895BB274A3031F4992322F4AC
:10070000BDE2909581959F4F0C948703BB27FB0119
:100710005527AA27880F991FAA1FA41710F0A41BFA
:1007200083955051B9F7A05DAA3308F0A95DA19354
:10073000009779F7B111B1931192CB010C94A003FA
:10074000DC01FC01672F71917723E1F7329704C038
:100750007C916D9370836291AE17BF07C8F30895C3
:04076000F894FFCF3B
:00000001FF
